:020000040800F2
:10000000A8060020D5000008C50B00088B0A0008D0
:1000100000000000000000000000000000000000E0
:10002000000000000000000000000000AD0F00080C
:100030000000000000000000190C0008B10F0008CB
:100040000501000805010008050100080501000878
:100050000501000805010008050100080501000868
:100060000501000805010008050100080501000858
:100070000501000805010008050100080501000848
:100080000501000800000000000000000501000854
:100090000000000005010008050100080501000836
:1000A0000000000005010008050100080501000826
:1000B0000501000800000000E50700080501000830
:1000C0000348854600F078F800480047E917000823
:1000D000A80600200C4880F308880C480168090E27
:1000E0000B4A914205D10B480B4901600B480C4962
:1000F00001600C4880470C480047FEE7FEE7FEE73A
:10010000FEE7FEE7FEE70000A8060020040000006E
:100110001F00000018100240010000000000014014
:10012000000000000D100008C100000830B50B46AB
:10013000014600202022012409E00D46D5409D42C1
:1001400005D31D469540491B254695404019154647
:10015000521E002DF1DC30BD70B50024254600286C
:1001600001DA01244042002901DA01254942FFF762
:10017000DDFFAC4200D04042002C00D0494270BDAF
:10018000D2B201E00270401C491EFBD2704700222F
:10019000F6E710B513460A4604461946FFF7F0FF86
:1001A000204610BD0321001D401E037812021A4391
:1001B000491EF9D510467047064C0125064E05E04C
:1001C000E36807CC2B430C3C98471034B442F7D378
:1001D000FFF77AFF501D0008701D000830B5324D42
:1001E00093B0284600F088F80121304800F016FD51
:1001F0000121480200F036FD1120069003206946D7
:1002000008770024CC7706A9680400F0EBFB684669
:1002100000F0C3F8694600940C71029404942846D7
:10022000059400F09FF807220121284600F044F8C9
:1002300007221021284600F03FF8284600F06CF80D
:100240000221284600F050F80121284600F042F82B
:100250000121284600F035F80121284600F073F806
:100260000028F9D0124D284600F03EFB0E480A94B3
:10027000403008900F48099014200B9080200D907A
:1002800040000E9080000F90202010900C940002EF
:10029000119008A91294284600F086FB01212846F7
:1002A00000F016FB13B030BD002401400100020035
:1002B00008000240DA010020836A0B438362426136
:1002C00070470029816801D0012200E00222114319
:1002D000816070470029C16802D00122114301E00A
:1002E00049084900C1607047C26802239A43C2604E
:1002F000C2680A43C2607047064910B5884208D1F7
:1003000044150121204600F0B9FC0021204600F0F0
:10031000B5FC10BD00240140826800210123DB07E9
:100320001A4382600F231B038268491CD20FD20735
:10033000994201D0002AF7D18168002901DB006CC5
:1003400070470020704702460020CB0104D5926818
:1003500001231B069A4300E012680A4200D00120E4
:100360007047000030B5C268084B8C681A400B68B3
:100370000D792343CC686D032C4323430C694969F1
:1003800023430B431343C36030BD000003D2FFFF80
:10039000816804221143816070470021016001716E
:1003A0008160C160016141617047000007490648F2
:1003B0004A88805C4A88521C4A804A88FE2A01D1B9
:1003C00000224A8070470000DC000020300000203E
:1003D000044801884088814201D1002070470120F3
:1003E000704700003000002010B501214C06204667
:1003F00000F02CFC0021204600F028FC10BD00007D
:1004000070B50446817A012005462B4E8D40316837
:1004100001433160F069A843F061207B002812D1CC
:10042000F068A843F060E088618800040843A17A7E
:10043000C90089190864A088218800040843A17AAA
:10044000C90089194864207B012814D1F068284329
:10045000F0602046FFF7A6FE1021C841A17AC9002E
:1004600089190864201DFFF79DFE1021C841A17A5B
:10047000C90089194864E07A0028706805D02843CB
:1004800070602089002802D004E0A843F8E7706972
:10049000A84370612089012802D1706928437061E6
:1004A000607B012802D1F0692843F0613068400880
:1004B0004000306070BD000000660040002A4269C4
:1004C00001D00A4300E08A434261704710B50368D7
:1004D00000220224A3430360036801242343036032
:1004E000314B00E0521C4468E40701D19A42F9D133
:1004F0004268D2073ED08C798022012C04683BD020
:1005000094430460CC794022012C046836D0944393
:1005100004600C7A2022012C046831D094430460DA
:100520004C7A1022012C04682CD0944304608C7AFD
:100530000822012C046827D094430460CC7A04225A
:10054000012C046822D0944304608A78CC78920706
:10055000240622430C79240422434C79098824057B
:100560002243491E0A43C2610168490849000160EB
:1005700000210EE0002010BD1443C2E71443C7E77A
:100580001443CCE71443D1E71443D6E71443DBE725
:10059000491C4268D20701D09942F9D14068C0078E
:1005A000E8D1012010BD0000FFFFFF00F1B50121DF
:1005B0008AB0480400F032FB0121480600F03AFB03
:1005C000022669460E74002403208C74C002039036
:1005D0000125CD74032048740927FF0603A9384676
:1005E00000F000FA04220B21384600F033FA04220E
:1005F0000C21384600F02EFA194F3846FFF7F4FE6A
:1006000069468C71CC7102940A988870CC7007206E
:1006100008714E71082008803846FFF757FF08A977
:100620008C70CD700D71FF20A130694608834C831A
:100630008C83CC830C8408A94D7106A8FFF7E0FEDB
:100640001E20694608754E758D7505A800F0BCFA28
:10065000012202213846FFF731FF00200BB0F0BD28
:10066000006400400B0130B51B18FF3381331C6B55
:1006700004252C4014721C6B29D0E40854601C6BB8
:1006800002252C4054725C6B2407240F94725C6B1F
:10069000240AD4749C6BD4729C6B240A14739C6BD4
:1006A000240C54739C6B240E9473DC6BD473DC6B3E
:1006B000240A1474DC6B240C5474DB6B1B0E9374CF
:1006C0002022002906D001691143016130BD640D6B
:1006D0001460D4E7C1681143C16030BD30B5024633
:1006E000936800205B0108D49068000101D50120C7
:1006F00003E09068C0002ED5022003019A18FF3253
:1007000081321368DB07DB0F13600B7A002B24D0D8
:1007100014684D681C434B7AED002B431C43146056
:100720008B7A1B071B0F8B7253681B091B015360CD
:1007300053688C7A23435360CB68CC7A1B022343E3
:1007400093600B69C97B1B020B43D36011680123C3
:100750001943116030BD042030BD13684C7A234327
:100760000C88640523431360DAE7000000220029A7
:1007700004D0012905D0022906D112E0826813486D
:1007800001E08268124802401249501A8A4218D089
:100790000ADC002A17D01048101811D0022810D1F6
:1007A0000DE082680D48EEE7FF38FF38801E06D066
:1007B0000B49401804D001214904884201D101208D
:1007C00070470020704702207047000003000004BB
:1007D0000003000800010008FFFFFFFB00000310FA
:1007E0000003FFF7F0B585B06A4600211148FFF716
:1007F00039FF00206E461049104A0746B57A0CE0D2
:100800003318DB7A0C8813550B885B1C0B800B8824
:10081000FE2B00D10F80401CC0B28542F0D8802151
:10082000074800F02EF9074800680749086005B03E
:10083000F0BD00000064004030000020DC0000201B
:1008400000040048880000208C000020F0B585B02E
:100850000022D02300936C46019222726272A17230
:100860006B4604E0845C9D18521CEC7292B28A4282
:10087000F8D3124F19463846FFF730FF06460024DA
:100880000F4D01E0641CA4B231463846FFF76EFFFD
:10089000002801D1AC42F5D3AC4205D30020FFF7CC
:1008A00085FE012005B0F0BD4021064800F0E9F8C2
:1008B00005480068054908600020F3E7006400402F
:1008C000FF0F000000040048880000209000002076
:1008D0000029016802D00122114301E0014A1140C0
:1008E00001607047FEFF0000F0B501682B4A11401F
:1008F00001600021016041608160C1602849284A8F
:1009000008390F2390422DD0254AF024143290420A
:100910002FD0234A1D022832904231D0204E1A0394
:100920003C36B04203D1486815E04860F0BD1C4F2A
:100930000F2650373604B8422DD0194F6437B842CD
:1009400002D14868320106E0154F7837B84204D129
:1009500048680F2212061043E7E71249114F083981
:10096000B84202D148681843DFE70E4B143398426F
:1009700002D148682043D8E70A4B2833984202D175
:1009800048682843D1E7074B3C339842CBD0054A0F
:1009900050329042CAD148683043C6E7FEFF00009B
:1009A000080002400804024030B503680C4A0C6A93
:1009B00013408A684D6922430C692C4322438C6999
:1009C0002243CC6922434C6A22438C6A22431A4355
:1009D0000260CA6842600A6882604968C16030BDCE
:1009E0000F80FFFFF0B50022032501230C68934020
:1009F0001C409C422AD10C79012C01D0022C12D12E
:100A0000876854002E46A640B74387604E79A640BB
:100A100084682643866084889C43848084888B799C
:100A200093401C438480066853002C469C40A64398
:100A300006600E7907689E403E430660C668A6437E
:100A4000C660CC799C40C3681C43C460521C102A09
:100A5000CBD3F0BD4B07DB0E9A40C90810B5890017
:100A60000818016A0F249C40A1430162016A1143E6
:100A7000016210BD0246128A00200A4200D0012005
:100A800070470185704781617047FEE71CB5012101
:100A9000480400F0C3F80020694608710120C871BD
:100AA00060200924E40600902046FFF79BFF802188
:100AB000009169462046FFF795FF1CBD10B500F078
:100AC00005F80149087110BD8000002070B50925A6
:100AD000ED0620212846FFF7CDFF204C4021607015
:100AE0002846FFF7C7FFA07080212846FFF7C2FF06
:100AF000E0702178012925D16178002904D0A278FD
:100B0000002A01D000281DD1154E3368154A1568FA
:100B10005B1BFF25F535AB4214D912683260002209
:100B20002270002905D0A178002907D0002807D01D
:100B300011E0E088401CE080012070BD022070BD03
:100B4000032070BD6178012905D1A178012902D166
:100B5000012800D12070002070BD0000800000201E
:100B60009C000020880000207CB503200121400467
:100B700000F054F801206A461071002191710321A0
:100B80005171D071C8200E4C009069462046FFF785
:100B900029FFC8212046FFF776FFFF2409250134ED
:100BA000ED06694628460094FFF71CFF21462846BB
:100BB000FFF769FFFF20F53000F0E4FD7CBD000089
:100BC000000400487047000030B5827801240178A5
:100BD000002A15D08B080E4A9B009A1813688907C3
:100BE000C90EFF258D40AB434578AD072D0E8D40D6
:100BF0001D4315600078C006C00E8440054804E01F
:100C0000C806C00E844003488030046030BD000038
:100C100000E400E000E100E070470000044A002921
:100C2000516901D0014300E08143516170470000E8
:100C300000100240044A0029D16901D0014300E0BC
:100C40008143D1617047000000100240044A00292E
:100C5000116901D0014300E0814311617047000038
:100C600000100240044A0029916901D0014300E0CC
:100C7000814391617047000000100240044A00293E
:100C8000D16801D0014300E08143D160704700008A
:100C90000010024070B5002400F034F8012000F08C
:100CA00047F905252D0300E0641C012000F014F92C
:100CB000002801D1AC42F7D1012000F00DF9002845
:100CC0001CD00F4911200860002000F027F90020F7
:100CD00000F03CF90521C904002000F04FF9012083
:100CE00000F03EF9192000F0F7F80028FAD00220B1
:100CF00000F052F900F00AF90828FBD170BD00009D
:100D0000002002401248016801221143016041683D
:100D1000104A1140416001680F4A114001600168AA
:100D2000012292049143016041683F2212049143E1
:100D30004160C16A09090901C162016B074A11409A
:100D40000163416B4908490041630021816070479C
:100D5000001002400CB8FF08FFFFF6FEACFEF0FFEB
:100D6000F8B5564E0446706800210C22544D1040D0
:100D700005D0042803D0082803D00C281AD02560F9
:100D80001AE07168706803228902D2030F0F1040C5
:100D9000BF1C00280AD0F06A0107090F2846491C29
:100DA000FFF7C4F978430146216005E0454839461C
:100DB0004143F9E7444820607068444F0006000F43
:100DC0003B5C20680246DA40626073685B055B0F3B
:100DD000FB5CDA40A260336BDB0501D43C4B05E0E1
:100DE00073685B0401D4530800E09308E360336B3D
:100DF0005F06384B03D4374F1237276100E0236179
:100E0000376BFF0601D4656100E06061376BBF0797
:100E10000ED0376BBF07BF0F012F0BD0376BBF074B
:100E2000BF0F022F08D0376BFF43BF0706D006E085
:100E3000A26104E0A06102E0A36100E0A561376B5C
:100E4000BF03BF0F0FD0376BBF03BF0F012F0CD0F5
:100E5000376BBF03BF0F022F09D0376BBF03BF0F24
:100E6000032F06D006E0E26104E0E06102E0E36106
:100E700000E0E561376B3F03BF0F0FD0326B120309
:100E8000920F012A0CD0306B0003800F022809D08A
:100E9000306B0003800F032806D006E0226204E0D6
:100EA000206202E0236200E02562306B000602D47B
:100EB00005486062F8BD6162F8BD000000100240A4
:100EC00000127A0000093D00006CDC0220000020C6
:100ED000809FD50000800000034600200A4A59097F
:100EE0000CD001290CD002290CD0516BDA06D20E9D
:100EF000012393400B4200D0012070471168F5E7B1
:100F0000116AF3E7516AF1E70010024002484068B5
:100F10000C2108407047000000100240034A51684D
:100F2000F0239943014351607047000000100240D4
:100F300005490028086802D00122104301E040085A
:100F4000400008607047000000100240034A5168EA
:100F500007231B0299430143516070470010024070
:100F60000122054912060028086801D0104300E05C
:100F700090430860704700000010024010B5054A19
:100F800053687B24E403A34353605368084303433B
:100F9000536010BD00100240034A5168890889005F
:100FA000014351607047000000100240704700008C
:100FB00002480168491E0160704700008800002057
:100FC00070B50E487D21C9000D4C0068FFF7AEF8E2
:100FD0000C4A0723401EA04201D901210BE05061B9
:100FE000094EF16903250902090AAD072943F16198
:100FF0000021916113610029EDD170BD0C0000202A
:10100000FFFFFF0000E000E004ED00E0134801688E
:101010000122114301604168114A11404160016899
:10102000104A11400160016801229204914301605D
:1010300041683F22120491434160C16A09090901D4
:10104000C162016BFF22543291430163416B490835
:101050004900416300218160704700000010024098
:101060000CB8FF08FFFFF6FE0029018802D001221C
:10107000114301E04908490001807047F0B50320A1
:101080008BB001214004FFF7C9FD022568460571B8
:1010900003214171002484710126C6713E4809274D
:1010A000FF06009069463846FFF79CFC332000900D
:1010B00069463A48FFF796FC012205213748FFF7B9
:1010C000C9FC012204213548FFF7C4FC02220F218C
:1010D0003846FFF7BFFC012211463048FFF7BAFC43
:1010E000012200212D48FFF7B5FC022203213846DA
:1010F000FFF7B0FC022211463846FFF7ABFC022294
:1011000001213846FFF7A6FC01210320FFF792FDDD
:101110002F2168468183C4832148089068468484CF
:101120006C0707A9204600F03DF91E4F07A9384675
:1011300000F038F9702168460181468185821A489D
:10114000049002A9384600F06FF802A9384600F072
:101150002DF802A9204600F029F802A9384600F02F
:10116000EFF802A9384600F0A7F802A9204600F0DF
:10117000E7F802A9204600F09FF802A9204600F0F7
:1011800053F801212046FFF76FFF01213846FFF792
:101190006BFF0BB0F0BD00000E80000000040048A3
:1011A0001F4E000000040040DC05000070B5028CFA
:1011B000520852000284048C8288038B7025AB4352
:1011C0009B080D889B001D4302239C438E894B88FE
:1011D0002643104C3343A04208D00F4CA04205D008
:1011E0000E4CA04202D00E4CA0420DD10824A343C5
:1011F000CC891C4304239C438B882343094C224005
:101200000C8A14434A8A2243828005838968416399
:10121000038470BD002C01400040014000440140A7
:1012200000480140FFFC000070B5028C10239A4377
:101230000284048C8288038B1A4D2B400D782D0676
:101240002D0C1D4320239C438B891B051E0C4B88B2
:1012500026431B051B0C144C3343A04202D0134EF3
:10126000B04219D1124E32400E8AB604360C3243C7
:10127000A04211D18024A343CC892405240C1C4313
:1012800040239C438B881B051B0C2343094C2240A5
:101290004C8AA404240C22438280058389688163DC
:1012A000038470BDFF8C0000002C01400040014011
:1012B000FFFB0000FFF7000030B5028C1A4B1A400C
:1012C0000284038C8288848B7025AC43A4080D882B
:1012D000A4002543154C23400C7B2406240C1C43FE
:1012E0008B781B061B0C2343114CA04215D1114CCB
:1012F00023408C7B2406240C1C430F4B1C400B7991
:101300001B061B0C23430D4C22400C8A2405240C85
:1013100014434A8A1205120C22438280858389680D
:10132000C163038430BD0000FFFE0000FFFD00002C
:10133000002C0140FFF70000FFFB0000FFCF000082
:1013400030B5028C124B1A400284058C8288838B44
:10135000104C23400C782406240C1C430E4B1D40DB
:101360000B7B1B071B0C2B438D782D072D0C1D436E
:101370000A4B984205D10A4B13400A8A9205120C77
:101380001A438280848389680164058430BD00002B
:10139000FFEF0000FF8C0000FFDF0000002C014089
:1013A000FFBF000010B50288144B984206D00124FC
:1013B000A407A04202D0124CA04203D17024A24341
:1013C0004C8822430F4CA04203D00F4C22400C8982
:1013D000224302804A68C2620A880285984208D085
:1013E0000A4A904205D00A4A904202D0094A9042E5
:1013F00001D1897A01860121818210BD002C014032
:101400000004004000100040FFFC000000400140CC
:101410000044014000480140F0B5012189B0880333
:10142000FFF720FC01214804FFF7F8FB0921CF0654
:1014300001223846FFF70EFB01220A213846FFF74A
:1014400009FB012040020090022668460671002434
:10145000847103214171C47169463846FFF7C2FAAD
:101460007502684600950671C47169463846FFF7F3
:10147000B9FA0C480290E8000394079404900C20F9
:10148000094C0690059502A9204600F023F8012199
:10149000204600F00DF84021204600F007F809B082
:1014A000F0BD0000A08601000038014001627047D5
:1014B0000029016802D00122114301E049084900D6
:1014C000016070470246D26900200A4200D0012024
:1014D0007047000030B5044600688BB00D464008E8
:1014E000400020606068032109038843A968014324
:1014F000616020681C49EA680840696811432A69EC
:10150000024311432160A0680321090288436969ED
:101510000143A1606846FFF723FC1448844201D1CF
:1015200006980AE01248844201D1079805E0114864
:10153000844201D1089800E00298216809042968D2
:1015400000D54000FEF7F2FD2A6852088A4200D812
:10155000401C2168090404D50107074A490F1040BF
:101560000843A0810BB030BDF3E9FFFF0038014014
:101570000044004000480040F0FF0000C905C90DCC
:101580000185704702E008C8121F08C1002AFAD17D
:1015900070477047002001E001C1121F002AFBD1F3
:1015A000704700000448C1780448012902D004496A
:1015B000018270470349FBE7C00000204000002083
:1015C0006C0700004C04000004480179044801291C
:1015D00002D00449418270470349FBE7C000002064
:1015E000400000206C0700004C0400000249014844
:1015F000888170476C0700004000002010B5074943
:10160000074A0889074B904201D10B8110BD064C57
:10161000984201D10C8110BD0A8110BD400000200C
:101620004C040000DC0500006C0700000748084B74
:10163000018A5800401A074A80B2994201D899425B
:1016400001D250807047538070470000C0000020D6
:10165000DC050000400000200548064AC089064914
:10166000904201D8904201D2088070470A807047AA
:10167000C0000020DC0500004000002002480349B3
:10168000C08AC88070470000C000002040000020D1
:101690000348044942898A4200D103494181704785
:1016A000400000204C0400006C070000F8B5164C08
:1016B0001649608801254018154900268F10884278
:1016C0000CD32078002807D109202902C006FFF793
:1016D000D8F9384600F056F8257000E02670A0884A
:1016E0000C4940180C4988420BD36078002806D179
:1016F00008210A48FFF7C5F9384600F043F865703D
:10170000F8BD6670F8BD00003400002008D5FFFF6A
:10171000D10700006CEEFFFFE90300000004004861
:1017200010B5002000F038F8034CA080012000F034
:1017300033F8608010BD00003400002010B5FFF7C2
:1017400065FCFFF7A7FAFFF73BFCFFF70DFAFEF782
:1017500045FD0020FEF72AFFFFF790FC00F074F92A
:10176000FFF794F910BD0A8813464240100150401B
:10177000C0B21A0A03025A40C3005A40000942404C
:101780000A80704703490A680B68D31A8342FBD367
:10179000704700008800002010B5044600210F4A61
:1017A00008464B001B195B00D35A491C1818C9B2D4
:1017B0000A29F6D30A21FEF7B9FC002C02D0012C2D
:1017C0000AD103E006494843400A05E00549484379
:1017D00003218902FEF7AAFC80B210BDDA010020C5
:1017E00039030000E5290000FFF7A8FF6D4E6E4F9A
:1017F000FFF764F900F07EF9012868D16B480078A2
:10180000002830D1FFF728FFFFF710FF6848016874
:10181000684C2268891A7D22D200914223D921681E
:101820000160FFF72BFF644801786448007881422B
:1018300001D0FFF72DFF62480178624800788142AD
:1018400001D0FFF7DBFE60480178604800788142F4
:1018500005D0FFF7CBFE0120307020683860FFF71D
:10186000A1FEFFF7B1FE5A485A49008808805A483D
:101870005A49008808805A485A49008808805A48BE
:101880005A49007808705A485A49007808705A48EE
:101890005A4900780870494801784748017049481A
:1018A00001784748017056485649007808705648F4
:1018B00056490078087056485649007808705648CE
:1018C000564900780870414801783F4801705448F3
:1018D0000168384C2268891A0A2932D321680160CC
:1018E0005048FEF755FD504D0A212868FEF71EFCB2
:1018F000002909D120687D21C0430901884203D90C
:10190000FFF70EFFFFF7D2FE64212868FEF70EFCFA
:10191000002913D120684549C04388420ED9214986
:10192000491CC879401CC0B2C871FF2801D10020F1
:10193000C8711C480821401CFEF788FF2868401C1D
:1019400028603B4800682168401A322803D980216A
:101950003848FFF798F8384800682168401A32285C
:1019600003D940213348FFF78EF8307800280DD096
:1019700038682168401AFF21F531884206D930497C
:101980002E48888120683860002030702D4D2868EE
:101990002168401A0E2800D82AE700F06BF820686A
:1019A000286025E700000020AC000020C5000020D2
:1019B000A800002088000020B6000020C2000020FF
:1019C000B7000020C6000020BF000020CB00002090
:1019D000D2000020B0000020D4000020B20000207F
:1019E000D6000020BC000020D8000020BE0000204F
:1019F000C0000020B4000020C1000020B50000207D
:101A0000C7000020B8000020C8000020B900002056
:101A1000C9000020BA000020CA000020BB0000203E
:101A2000940000200024014098000020B80B000022
:101A30008C00002000040048900000204C040000AE
:101A4000400000203C00002010B5FFF7E5FC0748EF
:101A5000054901804180C180054901814181818121
:101A60000182418210BD0000DC0500004000002022
:101A70004C040000F8B51C4D00261621681CFEF72A
:101A800086FB2C46403C19487700C15B1848081873
:101A90000521FEF761FBC000761CF6B2E053102E64
:101AA000F1D30F2028702188012200200B235343FB
:101AB000C6009B1BDBB2082B05D25600A65B9E40DE
:101AC0003143521CD2B22B185970401C090AC0B2C3
:101AD000112AEBD30020E87528761921024800F07E
:101AE00061F80020F8BD0000420200204000002004
:101AF00096FCFFFF38B5002069460870FEF768FCC9
:101B000069460870254C0CE0FEF750FC2073014636
:101B1000234800F063F8012808D0FEF759FC694615
:101B2000087008780128EFD0002038BD1C49887C57
:101B30004A7C00021043E0810846027DC37C120209
:101B40001A4322828A7E4B7E12021A436282027FED
:101B5000C37E10021843A082887F497F0002084399
:101B6000E0820F4820304178217081786170C1781F
:101B7000A1700179A1714179E17181792172C179F5
:101B80006172017AA172417AE172817AE170C17A5F
:101B90002171807B6071012038BD0000C0000020F1
:101BA00074020020F8B50D46064600240A4F0FE0E7
:101BB00040213846FFF77AFC315D3846FFF7DEFCFE
:101BC00040213846FFF77EFC0028F9D0641CA4B2FF
:101BD000AC42EDD3F8BD00000038014070B5514D66
:101BE00000246C702A78034623330126002A1AD079
:101BF000012A24D0022A29D0032A2CD0042A2FD04B
:101C0000052A32D0062A37D0072A3AD0082A46D0E9
:101C1000092A52D00A2A55D00B2A61D00C2A68D042
:101C20000D2A72D073E0EB2971D100220170D243EA
:101C30001A73120A5A7300F077F82E706BE00129BC
:101C400065D1417000F070F802205AE0817000F018
:101C50006BF8032055E0C17000F066F8042050E0F6
:101C6000017100F061F805204BE01E294FD1417150
:101C700000F05AF8062044E0817100F055F8072082
:101C80003FE0AA788218D17100F04EF8A878401C85
:101C9000C0B2A87003283ED1AC70082031E0EA78C9
:101CA0008218917200F040F8E878401CC0B2E870E9
:101CB000062830D1EC70092023E0017400F034F8DC
:101CC0000A201EE02A798218517400F02DF8287934
:101CD000401CC0B228711E281DD12C710B2010E0B1
:101CE000587B1A7B00021043C0B288420FD10C20EF
:101CF00007E0587B1A7B00021043000A884206D195
:101D00000D20287007E000E001E0BE2905D02C700E
:101D1000AC70EC702C71687870BD203041742C7000
:101D20006E70F8E7A000002018B523300A46417B0A
:101D30000446037B08021843694608801046FFF7F3
:101D400012FD694608882073000A607318BD000000
:101D5000701D000800000020DC0000008415000851
:101D60004C1E0008DC000020CC0500009415000883
:101D700000AABBCCDDEE0D0000000000006CDC0210
:101D8000000000000000000001020304060708092B
:101D90000000000001020304010203040607080911
:101DA000000000000000000000000000FFFFFFFF37
:101DB000DC05DC05DC05DC05DC05DC05DC05DC051B
:101DC000DC05DC05DC05DC05DC05DC05DC05DC050B
:101DD000DC05DC05DC05DC05DC05DC05DC05DC05FB
:101DE000DC05DC05DC05DC05DC05DC05DC05DC05EB
:101DF0000101010100000000FFFFFFFFFFFFFFFFE7
:101E0000FFFFFFFFFFFFFFFF00000000FFFFFFFFDE
:101E10000000000000000000FFFFFFFFFFFFFFFFCA
:101E200000000000000000000000000000000000B2
:101E3000000000010101000000000000000000009F
:0C1E4000000000000000DC0500000000B5
:04000005080000C12E
:00000001FF
